{
  "contractName": "SampleContract",
  "abi": [
    {
      "constant": true,
      "inputs": [],
      "name": "getTotalContribution",
      "outputs": [
        {
          "name": "",
          "type": "uint256"
        }
      ],
      "payable": false,
      "stateMutability": "view",
      "type": "function"
    },
    {
      "constant": true,
      "inputs": [],
      "name": "totalContributions",
      "outputs": [
        {
          "name": "",
          "type": "uint256"
        }
      ],
      "payable": false,
      "stateMutability": "view",
      "type": "function"
    },
    {
      "constant": false,
      "inputs": [
        {
          "name": "minimum",
          "type": "uint256"
        }
      ],
      "name": "contribute",
      "outputs": [],
      "payable": true,
      "stateMutability": "payable",
      "type": "function"
    },
    {
      "anonymous": false,
      "inputs": [
        {
          "indexed": false,
          "name": "minimum",
          "type": "uint256"
        }
      ],
      "name": "Contribution",
      "type": "event"
    }
  ],
  "bytecode": "0x6060604052341561000f57600080fd5b6101028061001e6000396000f300606060405263ffffffff7c010000000000000000000000000000000000000000000000000000000060003504166308caa9108114604f57806337c08923146071578063c1cbbca714608157600080fd5b3415605957600080fd5b605f608c565b60405190815260200160405180910390f35b3415607b57600080fd5b605f6092565b608a6004356098565b005b60005490565b60005481565b60008054820190557fb3dfcdc3b02dafc847568ea2bd0338ca89f4e9ac8fa28e9fac12ea34a2486b938160405190815260200160405180910390a1505600a165627a7a7230582065432f952d5c8028a63b9b8d20a0645d4f221db17ea3cafa4d1a3e1441933ebf0029",
  "source": "pragma solidity ^0.4.4;\n\ncontract SampleContract {\n    uint public totalContributions;\n\n    event Contribution(uint minimum);\n\n    function contribute(uint minimum) public payable {\n        totalContributions += minimum;\n        Contribution(minimum);\n    }\n\n    function getTotalContribution() public view returns (uint) {\n        return totalContributions;\n    }\n}",
  "sourcePath": "/home/developer/training/Ethereum/demoblockchain/contracts/SampleContract.sol",
  "schemaVersion": "1.0.0",
  "updatedAt": "2018-02-11T02:21:32.843Z"
}